:020000020000FC
:100000000E945900F0E040E03EE30E946600F430B8
:10001000F1F0F39500C00E946D003F933A3001C0AB
:10002000FACF3F910E9466003D3279F0F43049F0FA
:100030003B3269F33F913F70232E3AE20E94660003
:10004000E6CF3F913F70332EE2CF4395E0CF239C24
:10005000413019F006C00E942B003DE20E9466006C
:1000600000C0E22D02D014D0F6CF7AE09E2F09D046
:10007000906390932203982F04D090639093210370
:10008000089580E08395971BE8F78A95970F089568
:1000900000E010E020E0E2E0009122030F931091D5
:1000A00021031F932DE32F933F9110D0E150E0F7F0
:1000B000089507E611271093C5000093C40008E1D6
:1000C0000093C1000EE00093C20008950091C000AB
:1000D00005FFFCCF3093C60008950091C00007FFD4
:0800E000FCCF3091C600089529
:00000001FF
