:020000020000FC
:040000000C9440001C
:040040000C9400011B
:040034000C94000226
:100080000E940A0208E00EBF0FEF0DBF259A2D9ABD
:10009000549A5C9A4FEF5CE3409385005093840040
:1000A0007DEF76BD00E205B900E10BB940E055E017
:1000B000409380005093810040E044BD56E055BD20
:1000C00040E041E040936E0040E041E040936F002B
:0600D00078940C94690015
:1002000005B110E2012705B97DEF76BD20E0189514
:100400000BB110E101270BB923952063322F0E9415
:100410001702189507E611271093C5000093C40032
:1004200008E10093C1000EE00093C200089500911E
:0C043000C00005FFFCCF3093C60008950B
:00000001FF
